:020000040800F2
:100000004815002099010008731D0008D51B000841
:10001000711D00086503000861220008000000004F
:1000200000000000000000000000000001010008C6
:100030009F0300080000000045010008251E00087D
:10004000B3010008B3010008B3010008B3010008C0
:10005000B3010008B3010008B3010008B3010008B0
:10006000B3010008B3010008B301000869030008E8
:10007000B3010008B3010008B3010008B301000890
:10008000B3010008B301000829020008B301000809
:10009000B3010008B3010008B3010008B301000870
:1000A000B3010008F91E0008B3010008B3010008FD
:1000B000B3010008B3010008B3010008B301000850
:1000C000B3010008B3010008B3010008B301000840
:1000D000B301000809220008B3010008B3010008B9
:1000E000B3010008B3010008B3010008DFF80CD029
:1000F00000F088F800480047B123000848150020A8
:10010000224B19680868B0E8F00F80F30988BFF344
:100110006F8F4FF0000080F311884EF00D0E704786
:100120000000000006480068006880F3088862B696
:1001300061B6BFF34F8FBFF36F8F00DF00BF00BF0B
:1001400008ED00E0EFF30980BFF36F8F0F4B1A68E3
:1001500020E9F00F106008B54FF0500080F31188CF
:10016000BFF34F8FBFF36F8F02F062FD4FF00000BF
:1001700080F31188BDE8084019680868B0E8F00FFE
:1001800080F30988BFF36F8F704700BF40000020E5
:10019000EFF3058070470000064880470648004797
:1001A000FEE7FEE7FEE7FEE7FEE7FEE7FEE7FEE727
:1001B000FEE7FEE7B11E0008ED00000840EA01037B
:1001C0009B0703D009E008C9121F08C0042AFAD20D
:1001D00003E011F8013B00F8013B521EF9D27047D1
:1001E000D2B201E000F8012B491EFBD27047002279
:1001F000F6E710B513460A4604461946FFF7F0FF26
:10020000204610BD064C074D06E0E06840F00103B3
:1002100094E8070098471034AC42F6D3FFF76AFF22
:10022000B42F0008D42F0008014800F077BA00006E
:100230006403002070B5044600688168C943C9079B
:100240001CD1816821F00101816000F081FE05462A
:100250000FE000BF00F07CFE401B022809D9A06A15
:1002600040F01000A062E06A40F00100E06201206E
:1002700070BD20688068C043C007EBD0002070BD0F
:1002800010B50146406A826A12F0500F05D0006A2C
:10029000026BBDE8104008461047816A41F40071C6
:1002A000816201688968C1F3424107290CD1C168A4
:1002B00051B9816A21F480718162816AC90403D4D1
:1002C000816A41F00101816200F0EEF910BD10B5C4
:1002D000406A816A41F040018162C16A41F00401D3
:1002E000C16200F01AFA10BD10B5406A00F014FAAD
:1002F00010BD0000F8B5002604460096006881682D
:10030000C943C90728D0816841F0010181601348C1
:1003100013490068B0FBF1F000E0401E0090002897
:10032000FBD100F015FE054611E000BF00F010FE05
:10033000401B02280BD9A06A40F01000A062E06ABE
:1003400040F00100E06284F824600120F8BD2068DC
:100350008068C043C007E9D10020F8BD3C00002000
:1003600040420F00FEE70000014800F0FDBB000026
:10037000D403002030B590F840500124AC40C56B48
:100380006C60046863604368102B036803D0996055
:100390000068C26030BD9A600068C16030BD7047BF
:1003A0007047000008B500208DF80000034A0121C5
:1003B000684602F0A3FA9DF8000008BD1000002076
:1003C000014801F0F3BF000010000020F8B5002242
:1003D000009290F8244083681646012C1CD001241A
:1003E00080F82440D3B14D680B691F249D4226D864
:1003F0001F055B1BC3F103030D6803EB83039D40E3
:10040000A7F580172F439C40036844F440159C6B6C
:10041000AC4327439F631EE00220F8BD4B68012BCD
:1004200005D0826A42F020028262012213E0036852
:100430009C6B0D686FF3150444EAC5340AE05B1B3E
:10044000C3F1030303EB83039C40036844F44015AA
:100450009C6BAC439C6303689C68E443E40706D050
:100460009C6847F20105AC43CD692C439C608B69C5
:10047000012B08D1CB69B3F5E04F08D0826A42F076
:100480002002826201224B69012B06D00CE0036836
:100490005C6844F480645C60F5E78B69A3B1826AB0
:1004A00042F02002826201220B68072405680A2BB1
:1004B00010D3EF680A3B03EB43039C40A7438C68CF
:1004C0009C402743EF600EE003685C6844F480546E
:1004D0005C60E9E72F6903EB43039C40A7438C680A
:1004E0009C4027432F610B68102B01D0112B04D1A6
:1004F00003689C6844F400049C604B68012B10D096
:10050000022B16D0032B03681BD01C6ACD686FF337
:100510000B042C431C620B68102B19D0112B17D025
:1005200037E003685C69CD686FF30B042C435C61B2
:10053000F1E703689C69CD686FF30B042C439C6161
:10054000E9E7DC69CD686FF30B042C43DC61E2E77B
:10055000124C0368A34217D19C68240219D49C68EA
:1005600044F400049C600968102912D10C490D4B19
:100570000968B1FBF3F101EB8101490000E0491E7C
:1005800000910029FBD104E0816A41F020018162E1
:10059000012280F824601046F8BD000000240140CC
:1005A0003C00002040420F0070470000F8B50024D6
:1005B000009490F824202546012A12D0012280F8C8
:1005C00024204A681F23072A0DD20668776B521E23
:1005D00002EB820293409F430B6893401F43776373
:1005E00019E00220F8BD06680D2A0AD2376BD21F27
:1005F00002EB820293409F430B6893401F43376393
:1006000009E0F76A0D3A02EB820293409F430B68C0
:1006100093401F43F7620A68072306680A2A0AD331
:10062000F7680A3A02EB420293409F438B6893407B
:100630001F43F76008E0376902EB420293409F4393
:100640008B6893401F4337610A68102A01D0112A32
:1006500020D1124B02689A4217D193681B0219D419
:10066000936843F4000393600968102912D10C4980
:100670000C4A0968B1FBF2F101EB8101490000E08D
:10068000491E00910029FBD104E0816A41F020015C
:100690008162012480F824502046F8BD00240140E6
:1006A0003C00002040420F00F0B4002001460A4602
:1006B000174D1346044600BF55F82460641CA4B2CD
:1006C000304455F82460641CA4B2314455F82460C9
:1006D000641CA4B2324455F82460641CA4B23344B0
:1006E000642CE9D31924B0FBF4F5B1FBF4F109480B
:1006F00005804180B2FBF4F18180B3FBF4F1C1804D
:100700006422001F02490068F0BC00F05BB90000E1
:10071000D40100201C0000207047704710B504462B
:1007200000684168890626D50168890723D5A16A32
:10073000C90603D4A16A41F40071A1628168C1F3C2
:100740004241072910D1E16871B9416821F02001C7
:100750004160A06A20F48070A062A06AC00403D443
:10076000A06A40F00100A0622046FFF79DFF2168CB
:100770006FF0120008602068416809062ED50168F4
:1007800049072BD5A16AC90603D4A16A41F40051D7
:10079000A1628168C1F30231072909D04168490586
:1007A00015D48168C1F34241072910D1E16871B9BC
:1007B000416821F080014160A06A20F48050A0626D
:1007C000A06AC00503D4A06A40F00100A0622046E0
:1007D000FFF7EAFE21686FF00C00086020684168AE
:1007E00049060DD50068C0070AD0A06A40F48030E1
:1007F000A062204600F094F821686FF001000860C4
:1008000010BD00002DE9F0414FF0000704003D4607
:100810007ED0A06A002628B9E66284F824602046CB
:1008200000F080F82046FFF705FDA16AC90600D454
:1008300020B1A06A40F01000A06269E0A16A21F432
:10084000885141F00201A1626268E169E3680A43EC
:1008500047EA43010A43A1684FF48077B94209D0BF
:10086000012907D05FF00001D4F814C0BCF1010FDA
:1008700002D00AE03946F7E7F3B1A36A43F0200358
:10088000A362E36A43F00103E3622368D3F804C080
:100890002CF4694C4CEA010CC3F804C021688B6845
:1008A000DFF870C003EA0C0313438B60A168B94200
:1008B0000BD0012909D00CE0DFF85CC0A3690CEB78
:1008C00043330B4343F40061DFE7218A0D05A5F5AF
:1008D00080152168CB6A23F470032B43CB62216817
:1008E00089680E4B1940914208D1E662A16A21F055
:1008F000020141F00101A162BDE8F081A06A20F08F
:10090000020040F01000A062E06A40F00100E062E6
:100910000120F1E7FDF7E1FF00E0FFFFFE0E1FFF02
:100920007047000070B586B0002506460095019519
:100930000295039500681E49884236D11D49886991
:1009400040F400708861886900F400700490886940
:1009500040F0040088618869694600F00400049052
:100960007220009003200190134800F00DFA144CFF
:100970001248C4E900058020C4E9025080002061CB
:10098000800060612020C4E90605204600F096F949
:1009900008B1FFF705FD34620022052112206662CE
:1009A00000F060FB122000F051FB06B070BD0000AB
:1009B00000240140001002400008014008000240ED
:1009C000D40300202DE9F047894604463B490068DE
:1009D0003B4F0E1D9046884201D0B84207D1306887
:1009E00010F4702F03D001252846BDE8F08794F855
:1009F000240001280CD0012084F824002046FFF7B1
:100A000079FC05004FF0000004D084F82400EBE7E7
:100A10000220EAE7A16A40F60162914341F4807145
:100A2000A1622168B94218D1326812F4702F14D033
:100A3000A16A41F48011A1623168490505D5A16A16
:100A400021F4005141F48051A162A16AC9040AD580
:100A5000E16A21F00601E16206E0A26A22F4801256
:100A6000A2624968E9E7E06284F82400216A154837
:100A70008862216A1448C862216A144808632168A0
:100A80006FF0020008602068816841F48071816025
:100A9000216843464A464C31206A00F03DF92068FF
:100AA0008168C1F342410729816803D041F4801174
:100AB000816099E741F4A001FAE7000000240140B9
:100AC0000028014081020008E9020008CF02000866
:100AD00010B590F821100024022903D0042181636D
:100AE00001243DE001680A6822F00E020A600168F4
:100AF0000A6822F001020A601A4A0168914201D193
:100B0000012121E0174A1432914201D110211BE04A
:100B1000144A2832914201D1891515E0114A3C321C
:100B2000914201D189140FE00E4A5032914202D114
:100B30004FF4803108E00B4A6432914202D14FF405
:100B4000801101E04FF08071064A083A516001219E
:100B500080F82110002180F82010416B01B18847F6
:100B6000204610BD080002402DE9F05FC16B0C6803
:100B700001680B68D0F840C0042202FA0CF2494D1B
:100B8000DFF824A1494E4A4FDFF828B1DFF828E109
:100B900022422CD05A072AD50A68920603D40A6842
:100BA00022F004020A600168A94201D1042219E07E
:100BB000514501D1402215E0B14202D14FF480628B
:100BC00010E0B94202D14FF480420BE0594502D106
:100BD0004FF4802206E0714502D14FF4800201E01B
:100BE0004FF080622F4908394A60C16A3BE04FF0FC
:100BF000020808FA0CF818EA040F4FF000094FF049
:100C0000010235D05FEA837832D50B689B0605D4A4
:100C10000B6823F00A030B6080F821200168A942C9
:100C200001D1022219E0514501D1202215E0B14243
:100C300002D14FF4007210E0B94202D14FF40052D9
:100C40000BE0594502D14FF4003206E0714502D164
:100C50004FF4001201E04FF00072124908394A6067
:100C600080F82090816A00291AD0BDE8F05F08471B
:100C7000082505FA0CF5254212D01B0710D50B6884
:100C800023F00E030B6090F84010C36B02FA01F1E1
:100C90005960826380F8212080F82090016BE2E7A0
:100CA000BDE8F09F080002401C00024030000240F6
:100CB00044000240580002406C00024030B528B3A6
:100CC00008C8134914221944B1FBF2F18900C16329
:100CD00010498163022141771A6843F6F0718A4313
:100CE000D0E900142143D0E902452C432143046993
:100CF0002143446921438469214311431960002140
:100D00004163012242770177084630BD012030BDA2
:100D1000F8FFFDBF0000024070B5044690F82000C7
:100D2000002501280CD0012084F8200094F82160CF
:100D30000020012E06D084F820000225284670BD30
:100D4000022070BD022684F82160A0632068066836
:100D500026F0010606602046FFF70CFBE06A00283B
:100D60002068016802D041F00E0106E021F0040184
:100D700001602068016841F00A0101602068016893
:100D800041F001010160D9E72DE9F84FDFF890A1AA
:100D900000220AF1040B144601274FF00F090BF152
:100DA000040E00BF0B6807FA04F52B40AB4274D168
:100DB000DFF870C14E68A6EB0C0866452BD00DDC41
:100DC000032E34D005DC36B3012E19D0022E2FD1DC
:100DD0001BE0112E16D0122E2AD119E0B8F5881F6B
:100DE00019D006DCB8F5803F15D0B8F5801F1FD1AB
:100DF00011E0B8F5001F0ED0B8F5041F18D10AE0B5
:100E0000CA6815E0CA68121D12E0CA6808320FE00D
:100E1000CA680C320CE08A682AB1012A4FF0080235
:100E200003D0456104E0042202E0056100E00022F5
:100E3000FF2B01D8064601E000F104064FEA8405C5
:100E400001D9A5F12005D6F800C009FA05F82CEA69
:100E5000080C02FA05F54CEA050CC6F800C04D680E
:100E6000ED0057D5304DAE6946F00106AE61AD6973
:100E700024F0030605F0010500952C4D06EB050C4A
:100E8000DCF80850A6074FEA167809FA08F6B543C9
:100E9000274EB04202D1002610E03BE0254EB04282
:100EA00001D101260AE0244EB04201D1022605E01C
:100EB000224EB04201D1032600E0042606FA08F6CD
:100EC0002E43CCF808604D68DAF80060ED03554613
:100ED00001D51E4300E09E432E604D68DBF80060A4
:100EE000AD035D4601D51E4300E09E432E604D6874
:100EF000DEF80060ED02754601D51E4300E09E431A
:100F00002E604D68AD020E4D2E6801D51E4300E0E7
:100F10009E432E60641C102CFFF444AFBDE8F88F94
:100F200000040140000011100010024000000140C8
:100F300000080140000C0140001001400014014075
:100F40000C0401400AB1016170470904FBE700008D
:100F50000148806870470000300000200248816826
:100F6000027811448160704730000020074810B5B6
:100F7000016841F010010160032000F093F80020A7
:100F800000F006F800F03EF8002010BD00200240FE
:100F900000B5014687B00022192000F063F819203F
:100FA00000F054F81348816941F40061816180695F
:100FB00005A900F400600690684600F0B1F900F061
:100FC000DFF90D490D4AB0FBF1F10D48491E0260F1
:100FD000416040F2E7320021C0E90321816000F066
:100FE00099FB10B1012007B000BD054800F0AEFB31
:100FF000F9E700000010024040420F00002C0140C1
:10100000180400200F4808B5816941F00101816191
:10101000816901F001010091C16941F08051C16114
:10102000C069002200F0805000900F21901E00F057
:1010300019F80548416821F0E06141F00071416014
:1010400008BD0000001002400000014000F01F0237
:10105000012191404009800000F1E020C0F800111A
:1010600070470000F0B40E4B1B680C46C3F302231C
:10107000C3F10705042D00D90425191D072901D244
:10108000002300E0DB1E012606FA05F1491E21407F
:1010900099409E40761E16403143F0BC00F06ABE77
:1010A0000CED00E0064900F0070208684FF6FF0368
:1010B000184040EA0220034A1043086070470000CD
:1010C0000CED00E00000FA052DE9F8430546007834
:1010D000354CC00754D0E0690026C00008D4E06950
:1010E00040F08050E061E069012600F080500090FF
:1010F0002E480168C90512D40168804641F4807108
:101100000160FFF725FF074605E000BFFFF720FF5E
:10111000C01B642823D8D8F80000C005F6D5206A83
:1011200010F4407021D0A98801F4407181421CD094
:10113000206A1F49012220F440700A6000220A60E0
:101140002062C00711D0FFF703FF074641F288383D
:1011500008E000BFFFF7FCFEC11B414502D9032098
:10116000BDE8F883206A8007F4D5206A696820F416
:101170004070084320621EB1E06920F08050E061B9
:101180002878800705D56068A96820F440400843A6
:1011900060602878C00605D56068E96820F48000A2
:1011A000084360600020DBE7001002400070004050
:1011B000400442422DE9F047DFF8548105460E46CF
:1011C000D8F8000000F00700B0420CD2D8F80010A8
:1011D00021F007013143C8F80010D8F8000000F0F2
:1011E0000700B0426FD128684A4C810712D54007EA
:1011F00003D5606840F4E06060602878000703D59C
:10120000606840F4605060606068A96820F0F00099
:10121000084360602878C00744D06868012816D069
:101220002168022816D0890700294CDA616821F06C
:10123000030101436160FFF78BFE6968074641F2D5
:10124000883001290ED00229814618D026E0216875
:101250008903E9E78901E7E7FFF77AFEC11B494502
:1012600001D918E081466068C0F381000128F3D1FC
:1012700018E000BFFFF76CFEC11B49450BD8606842
:10128000C0F381000228F5D10CE000BFFFF760FE3B
:10129000C11B494502D90320BDE8F087606810F002
:1012A0000C0FF3D1D8F80010404601F00701B1420D
:1012B0000BD9016821F0070131430160006800F09B
:1012C0000700B04201D00120E6E72878400705D5A5
:1012D0006068E96820F4E0600843606028780007EF
:1012E00006D56068296920F4605040EAC10060605A
:1012F00000F056F86168084AC1F30311515CC84018
:10130000064908600020FFF743FE0020C4E7000004
:101310000020024000100240782F00083C0000200E
:101320000F2202600C4A536803F0030343605368C2
:1013300003F0F0038360536803F4E063C360526812
:101340004FF4E06303EAD20202610448006800F04F
:1013500007000860704700000010024000200240B3
:101360000448054900684968044AC1F30221515CF8
:10137000C84070473C00002000100240882F000841
:101380000448054900684968044AC1F3C221515C18
:10139000C84070473C00002000100240882F000821
:1013A00012A185B00FC98DE80F0014A0144A00687F
:1013B00004905168134801F00C03042B10D0082B43
:1013C0000ED1C1F38343C9031DF803000AD5516848
:1013D00004AAC1F34041515C0A4A5043B0FBF1F00A
:1013E00005B0704708494843FAE7000002030405C6
:1013F000060708090A0B0C0D0E0F10100102000061
:101400000010024000127A0000093D002DE9F84F5B
:1014100004460078B94DC00748D06868C0F3810021
:10142000012807D06868C0F38100022809D16868E4
:10143000C00306D52868800338D5606800286FD0BF
:1014400034E06068B0F5803F0BD010B1B0F5A02F4C
:1014500011D0286820F480302860286820F480208B
:1014600002E0286840F480302860606888B1FFF7A7
:101470006FFD064609E0286840F480202860F0E708
:10148000FFF766FD801B642875D828688003F7D5B0
:101490000CE0FFF75DFD064605E000BFFFF758FDD5
:1014A000801B6428F0D828688003F7D42078944EF5
:1014B00080074FF001094FF000083BD5686810F035
:1014C0000C0F07D06868C0F38100022809D1686852
:1014D000C00306D42868800714D5206901281FD1CD
:1014E00010E02069B0B1C6F80090FFF731FD074663
:1014F00005E000BFFFF72CFDC01B0228C4D82868F8
:101500008007F7D52868616920F0F80040EAC1003B
:1015100028600FE0C6F80080FFF71AFD074606E0D6
:10152000E9E000BFFFF714FDC01B022823D828689C
:101530008007F7D4207800072CD57248A169D9B16B
:10154000C0F80090FFF704FD074604E0FFF700FD38
:10155000C01B02280FD8686A8007F7D56A484FF485
:10156000FA510068B0FBF1F0009000BF0098411EF6
:101570000091FAD20EE080E0C0F80080FFF7E8FCAE
:10158000074604E0FFF7E4FCC01B022875D8686A30
:101590008007F7D42078400760D5E8690027C000AD
:1015A00008D4E86940F08050E861E869012700F05C
:1015B0008050009055480168C90513D401688346DE
:1015C00041F480710160FFF7C3FC824606E000BF72
:1015D000FFF7BEFCA0EB0A0064284ED8DBF8000041
:1015E000C005F5D5E06801280AD008B1052813D058
:1015F000286A20F001002862286A20F0040002E036
:10160000286A40F001002862E06841F2883B98B106
:10161000FFF79EFC82460BE0286A40F00400286237
:10162000EEE700BFFFF794FCA0EB0A0159455AD83A
:10163000286A8007F6D50CE0FFF78AFC824605E0B1
:10164000FFF786FCA0EB0A0159454CD8286A8007B1
:10165000F6D41FB1E86920F08050E861E06988B3F2
:101660006968C1F38101022945D00228C6F860806B
:1016700004D0FFF76DFC044638E034E0FFF768FC67
:10168000074604E0FFF764FCC01B02282BD828683B
:101690008001F7D4206AB0F5803F05D16868A16861
:1016A00020F4003008436860D4E908010843696801
:1016B00021F4741108436860C6F86090FFF748FC95
:1016C000044606E015E000BFFFF742FC001B0228BD
:1016D00009D828688001F7D50BE000BFFFF738FC78
:1016E000001B022802D90320BDE8F88F286880017A
:1016F000F4D40020F8E70120F6E7000000100240D3
:1017000000004242800442423C0000200070004041
:101710007047704710B5040003D094F83D0010B135
:1017200007E0012010BD002084F83C00204600F0B6
:101730000CF8022084F83D00211D206800F0E2FB37
:10174000012084F83D00002010BD70470168CA6880
:1017500042F00102CA600068016841F001010160C5
:1017600000207047704770B50446006801694FF06B
:101770000005C943890715D4C168C943890711D435
:10178000E91E0161012020772068806980072046DA
:1017900002D0FFF7E7FF04E000F098F8204600F0E1
:1017A00096F8257720680169C943490717D4C168AD
:1017B000C943490713D46FF0040101610220207767
:1017C0002068806910F4407F204602D0FFF7CAFFEE
:1017D00004E000F07BF8204600F079F825772068D7
:1017E0000169C943090716D4C168C943090712D45E
:1017F0006FF008010161042020772068C06980072C
:10180000204602D0FFF7AEFF04E000F05FF820466C
:1018100000F05DF8257720680169C943C90617D42F
:10182000C168C943C90613D46FF0100101610820D3
:1018300020772068C06910F4407F204602D0FFF76F
:1018400091FF04E000F042F8204600F040F82577D0
:1018500020680169C943C90708D1C168C943C907DC
:1018600004D1891E0161204600F032F82068016928
:10187000C943090609D4C168C943090605D46FF0F4
:10188000800101612046FFF743FF20680169C943D9
:10189000490609D4C168C943490605D46FF040011F
:1018A0000161204600F01EF820680169C9438906DD
:1018B0000BD4C168C943890607D46FF020010161C8
:1018C0002046BDE87040FFF724BF70BD70477047E9
:1018D00000680349884201D1FFF740BB7047000010
:1018E000002C01407047704770B5026804461068CC
:1018F000D168536910F00F0F50D003F0010501F4C7
:10190000907635435DD0C20705D0CA0503D5E26B9A
:1019100042F00102E263420705D5DA0703D0E26B29
:1019200042F00202E263820705D5DA0703D0E26BD8
:1019300042F00402E263020705D5DA0703D0E26B46
:1019400042F00802E263E26B002A33D0800604D53D
:10195000880602D5204600F021FB20684069E16B33
:10196000C0F38010090700D428B3204600F008FB1C
:101970002068416949061AD5416921F04001416159
:10198000606BA0B11B494163606BFFF7A1F80028B1
:1019900010D0606B416BBDE870400847830610D5DE
:1019A0008B060ED52046BDE8704000F0F7BA204601
:1019B000FFF799FF70BD2046FFF795FF0020E06319
:1019C00070BD030606D50B0604D52046BDE8704061
:1019D00000F0E8BB4006F3D54806F1D5D1682046B3
:1019E00021F04001D160202184F8391000F0D8F8AE
:1019F00070BD0000711F000870B5040004D094F899
:101A00003900002510B106E0012070BD84F838507F
:101A1000204600F023F8242084F839002068C168AB
:101A200021F40051C160204600F004FB20680169E8
:101A300021F4904101612068416921F02A0141614E
:101A40002068C16841F40051C160E563202084F83A
:101A5000390084F83A00002070BD000030B585B030
:101A60000024009401940294039400681849884269
:101A70002CD11848816941F480418161816901F468
:101A800080410491816941F0040181618069124DB6
:101A900000F0040004904FF40070009002200190C8
:101AA0000320039069462846FFF76EF92815CDE913
:101AB0000004694628460294FFF766F900220521D2
:101AC0002520FFF7CFFA2520FFF7C0FA05B030BD7B
:101AD00000380140001002400008014090F83A3000
:101AE000202B22D1F9B1F2B190F83830012B1CD063
:101AF00081628285C2850021C163222280F83A205A
:101B000080F838100168CA6842F48072CA600168BF
:101B10004A6942F001024A610068C16841F020014F
:101B2000C16000207047012070470220704700000C
:101B300010B50A4C00686168096888420CD104F14C
:101B400010020121601C01F0A1F80122611C6068F3
:101B5000BDE81040FFF7C2BF10BD0000000000202C
:101B600090F83930202B18D1A9B1A2B190F83830B3
:101B7000012B12D001628284C2840021C163212220
:101B800080F8392080F838100068C16841F0800181
:101B9000C16000207047012070470220704700009C
:101BA00038B500248DF80040094800F0FFFB084DCF
:101BB000083D50B1064A0121684600F09FFE01220F
:101BC00069466868FFF7CCFF38BD2C7038BD00004F
:101BD00008000020FEE700002DE9F0418CB0002451
:101BE00008940994202168460A94FEF700FB2848CF
:101BF00026490125016089154461C0E902150426C2
:101C000006614FF460214460C161FEF7FBFD0327CC
:101C10000895CDE9095708A91D48FEF7C7FC4FF004
:101C20000208CDE9086808A91948FEF7BFFC05209D
:101C3000CDE9080708A91648FEF7B8FC0620CDE94B
:101C4000080608A91248FEF7B1FC0095CDE9015439
:101C50004FF4E040CDE90640CDE9046469460C4804
:101C60000394FEF7B3FB69460948CDF80480FEF7FC
:101C7000ADFB694606480197FEF7A8FB6946044894
:101C80000196FEF7A3FB0CB0BDE8F08100240140F3
:101C9000640300202DE9F04786B00024304800940A
:101CA000019402940394816941F01001816181697A
:101CB00001F010010491816941F020018161816985
:101CC00001F020010491816941F004018161816981
:101CD00001F004010491816941F00801816180698A
:101CE000012200F00800DFF87C80550304902946AB
:101CF0004046FFF727F9DFF8709001224CF203010C
:101D00004846FFF71FF9DFF864A0AF00002239460C
:101D10005046FFF717F9002278214846FFF712F9DD
:101D20000095022601250396CDE9015469464046F7
:101D3000FFF72AF84CF27B00CDE90005CDE9024619
:101D400069464846FFF720F800970396CDE901540D
:101D500069465046FFF718F806B0BDE8F087000066
:101D60000010024000100140000C0140000801403A
:101D7000FEE770470907090E002806DA00F00F0099
:101D800000F1E02080F8141D704700F1E02080F899
:101D900000147047012000F06DFBFBE74FF4005486
:101DA0001E4D1F4FA6004FF48048002221462846B2
:101DB000FFF7C8F8002231463846FFF7C3F8002283
:101DC00041463846FFF7BEF8002201213846FFF7AA
:101DD000B9F8002202213846FFF7B4F8C82000F015
:101DE00049FB012221462846FFF7ACF80122314683
:101DF0003846FFF7A7F8012241463846FFF7A2F818
:101E0000012211463846FFF79DF80122022138468B
:101E1000FFF798F8C82000F02DFBC6E7001001403E
:101E2000000C014010B5502080F31188BFF34F8F94
:101E3000BFF36F8F00F0BCFF18B104494FF0805022
:101E40000860002080F3118810BD000004ED00E060
:101E500030B593B028216846FEF7C9F914210AA8C5
:101E6000FEF7C5F9002401200F9410941194010489
:101E700012948DE8130004904FF4E010CDE908109F
:101E8000022507956846FFF7C1FA0F20CDE90A053C
:101E90006802CDE90C4002210AA80E94FFF78AF9E6
:101EA000A80311900F950FA8FFF70EF913B030BDDE
:101EB0000D48016841F00101016041680B4A114081
:101EC000416001680A4A11400160016821F48021E3
:101ED0000160416821F4FE0141604FF41F018160FF
:101EE0000449C00308607047001002400000FFF87A
:101EF000FFFFF6FE08ED00E00148FFF734BC0000EC
:101F000018040020F0B50268164B174C174D4FF01F
:101F10008047984205D0B84203D0A04201D0A842E1
:101F200003D122F070064A683243984205D0B84285
:101F300003D0A04201D0A84203D122F44074CA6861
:101F4000224322F080044A69224302608A68C26206
:101F50000A688262984201D10969016301214161E5
:101F6000F0BD0000002C01400004004000080040CB
:101F700010B5406A0021C185C184FFF7B4FC10BDD3
:101F80000168CA6822F49072CA6001684A6922F046
:101F900001024A61202180F83A10704710B590F88C
:101FA0003A10222901D0022010BD8168B1F5805F6E
:101FB00011D00169002901681FD0496801F07F0331
:101FC000816A4A1C82620B70C18D491E0904090C8A
:101FD000C18518D02BE00269816A002A0268526824
:101FE00005D0D2B20A80816A491C8162ECE7C2F353
:101FF00008020A80816A891CF7E74A68816A4B1CDB
:1020000083620A70E0E70168CA6822F02002CA60B1
:102010000168CA6822F48072CA6001684A6922F0C5
:1020200001024A61202180F83A10FFF781FD00206B
:1020300010BD00002DE9F041044600680169E26826
:1020400021F44051114301612169A068084361698D
:1020500008432168CA6841F20C639A430243CA608C
:1020600020684169A26921F44071114341614C49E2
:1020700020686425322688423CD1FFF781F900EBC5
:10208000C00101EB001061688900B0FBF1F7FFF7B8
:1020900077F900EBC00101EB00106168B0468900E0
:1020A000B0FBF1F0B0FBF5F06FF01801484307EB1F
:1020B000800106EB0110B0FBF5F000F0F006FFF731
:1020C0005FF900EBC00101EB001061688900B0FB13
:1020D000F1F0B0FBF5F006EB0016FFF751F900EB5D
:1020E000C00101EB001061688900B0FBF1F7FFF758
:1020F00047F93BE0FFF734F900EBC00101EB0010BA
:1021000061688900B0FBF1F7FFF72AF900EBC00125
:1021100001EB00106168B0468900B0FBF1F0B0FB44
:10212000F5F06FF01801484307EB800106EB011052
:10213000B0FBF5F000F0F006FFF712F900EBC0017C
:1021400001EB001061688900B0FBF1F0B0FBF5F025
:1021500006EB0016FFF704F900EBC00101EB0010DD
:1021600061688900B0FBF1F7FFF7FAF800EBC001F6
:1021700001EB001061688900B0FBF1F0B0FBF5F0F5
:102180006FF01801484307EB800108EB0110B0FB2A
:10219000F5F0216800F00F0030448860BDE8F08160
:1021A0000038014090F83910212901D002207047F1
:1021B0008168B1F5805F016A0BD04A1C0262026837
:1021C00009785160C18C491E0904090CC1840ED0E4
:1021D00017E009880268C1F308015160016900290C
:1021E000016A02D0491C0162ECE7891CFBE7016827
:1021F000CA6822F08002CA600068C16841F04001EC
:10220000C1600020704700000148FFF76DBB00006F
:102210009403002070B50546FF220F490F4800F0D7
:1022200037F80D490D483222FF31083000F030F800
:102230000A4800F025F80948083000F021F8074C5A
:102240000026083C284666700122611C6560FFF785
:1022500045FC267070BD0000A00000200800002092
:10226000FEE702E008C8121F08C1002AFAD1704731
:102270007047002001E001C1121F002AFBD1704706
:102280000021017141718171C1790068FDF7AFBF13
:1022900000230371437183710160C27170470000B4
:1022A00002462048B2F58B5F2AD00BDCB2F5895F7D
:1022B0001BD0B2F58A5F34D1B1F5834F1ED0002216
:1022C00010210EE0B2F58C5F23D0B2F5905F28D1DB
:1022D0001548A1F584424FF40043103A03D0002280
:1022E0001946FEF72FBE0122FAE7A1F58242703AA5
:1022F00002D000220821F4E70122FBE70122DFE7F8
:10230000A1F58242903A02D000222021E9E7012281
:10231000FBE7B1F5844F02D000224021E1E7012222
:10232000FBE77047000C014000080140FFF772BF57
:10233000FEB50024FEF744F808282AD3FEF732F849
:102340005A2826D1FEF72EF8A52822D1FEF72AF822
:1023500005466E4605E000BFFEF724F83055641CC4
:10236000E4B2AC42F8D39DF80000832801D0822863
:102370000FD1BDF8010040BAA0F50C71B1F5B07FE6
:1023800002D8BDF8031001E0BDF8041049BAFFF708
:1023900087FFFEBD0448FFF7C9FF00BFFFF7C8FF76
:1023A0000A2000F067F8F9E794030020807970476D
:1023B00090B0FEF7DBFDFFF74BFDFFF76BFC254808
:1023C000416941F0010141614069002200F00100D2
:1023D0000F9005210B20FEF745FE0B20FEF736FE81
:1023E0001E481D490C2201604FF4E131416000217B
:1023F0008160C160C0E904128161C161FFF7FCFA2C
:10240000FFF7EAFB142216496846FDF7D7FE0021C4
:10241000684600F03BF8134C114914222060143137
:1024200005A8FDF7CBFE002105A800F02FF80C4908
:102430006060142228310AA8FDF7C0FE00210AA816
:1024400000F024F8A06000F01CF8002000F035F83F
:10245000FBE7000000100240003801409403002018
:102460003C2F00082400002001460020842900D0D1
:10247000C81C704710B500B9012000F021FB0020F6
:1024800010BD10B500F098FB002010BD3EB504460D
:102490000D46B0F90800FFF7E7FF02A9CDE90001FA
:1024A000208A2B4682B2D4E9001000F055FC0128A6
:1024B00001D000203EBD02983EBD10B500F026FBC5
:1024C000002010BD2DE9F041184C0F460546E66886
:1024D0002068001D00F03DFA38B9206890F82C10F3
:1024E00001208840216981432161681C07D137B1EF
:1024F0002168BDE8F0410E48091D00F062BA20686D
:102500003544B5424560216805D2A06BBDE8F04175
:10251000091D00F03EBA606B091D00F03AFAA06A8E
:10252000854200D2A562BDE8F08100004000002095
:10253000340500202DE9F041054600F04FFA2E4CFD
:10254000A068401CA06020682C4F10B1606940B3A7
:102550002DE02560A068012829D1002606EB860021
:1025600007EB800000F007FA761C072EF6D323480D
:102570008C3000F000FA2148A03000F0FCF91F4830
:10258000B43000F0F8F91D48C83000F0F4F91B48E9
:10259000DC3000F0F0F919488C3060631430A0632F
:1025A00005E02068E96AC06A884200D82560606A50
:1025B000401C6062E96A0120226988401043206162
:1025C00001EB810007EB8000291D00F0FAF900F013
:1025D00025FA606900280CD02068E96AC06A884240
:1025E00007D207494FF080500860BFF34F8FBFF309
:1025F0006F8FBDE8F08100004000002058040020EB
:1026000004ED00E070B5114E114C17E000F008FB2E
:102610003068B8B100F030FC00F0E0F9F068C5684F
:10262000281D00F096F9A068401EA0606068401E5A
:10263000606000F0F3F9284600F00CF860680028AC
:10264000E4D170BD00F018FCF8E700002005002080
:102650004000002010B50446006B00F0F3F920465E
:10266000BDE8104000F0EEB910484FF44061420759
:1026700006D0C01D0D4920F00700411AC1F5406188
:102680000B4A00230144C2E900030839103A21F043
:10269000070111604B600B600B1AC0E900139360D7
:1026A0004FF000405360D0607047000048050020A4
:1026B0008C000020074C4FF08056074DFFF7A2FF1B
:1026C00020680128FAD92E60BFF34F8FBFF36F8FB8
:1026D000F4E700005804002004ED00E02DE9F04785
:1026E0009A46DDE9098481466FF00303206B03EB12
:1026F00082021044089D20F00706700707D0502082
:1027000080F31188BFF34F8FBFF36F8FFEE723185D
:102710000A5C83F834200A5C12B1401C1028F6D3FE
:10272000002784F84370072D00D30625E562C4E92D
:102730001157201D00F02AF904F1180000F026F9C5
:102740002461C5F107006462A061E76484F85070F9
:1027500052464946304600F0BFF82060B8F1000FFD
:1027600001D0C8F80040BDE8F087000030B511493D
:1027700000E011460A688242FBD34B685C18844231
:1027800003D1406818444860084643681C189442C6
:1027900009D1084C103C2468A24209D052681A445E
:1027A00042600A6812680260814200D0086030BD51
:1027B0000460F9E78C0000200648416B096829B1E4
:1027C000416BC968C9684968816270474FF0FF3141
:1027D000FAE700004000002008484068401C4FF025
:1027E000500080F3118804D0BFF34F8FBFF36F8F79
:1027F000FEE7BFF34F8FBFF36F8FFEE7940000201B
:102800002DE9F0410546002700F00AFA314E306804
:1028100008B9FFF729FFF06805424BD1C5B3083569
:1028200068070ED005F00700C0F1080005446807EE
:1028300007D0502080F31188BFF34F8FBFF36F8F05
:10284000FEE72DB37068854234D822481030014627
:102850000C6801E020460C466168A94202D221685A
:102860000029F7D131688C4224D0076821680160C3
:1028700060680837411B10290FD96019420708D03A
:10288000502080F31188BFF34F8FBFF36F8FFEE7A7
:1028900010E041606560FFF769FF61687068401A89
:1028A0007060B268904200D2B060F06801430020CE
:1028B000C4E9000100F0E0FA780707D0502080F367
:1028C0001188BFF34F8FBFF36F8FFEE73846BDE827
:1028D000F08100007C00002010B5031F4FF08074D1
:1028E0001C601B1F21F001011960191F024B0B60B6
:1028F000143940380A6010BDD92700082DE9F04787
:1029000014460D4681461079D679D2F80080217997
:10291000236842191944B24202D82A46484609E0BF
:10292000301AC7B23A464846FDF748FCEA1B09EBA5
:1029300007004146FDF742FC20792844B0FBF6F140
:1029400006FB11002071A079401BA0712846BDE84C
:10295000F087D0E9013201699A60D0E901235A6019
:102960004A68824201D182684A6000220261086896
:10297000401E0860704700F108014FF0FF32C0E9C7
:102980000112C160016100210160704700210161F5
:10299000704730B50B685A1C02D000F1080202E003
:1029A000026904E02246546825689D42FAD95368BA
:1029B0004B6099608A60516008610168491C016040
:1029C00030BD42684A6093688B609368596091603B
:1029D00008610168491C016070470000502080F3C5
:1029E0001188BFF34F8FBFF36F8F0A494868401CAF
:1029F000486001280CD10848006810F0FF0F07D08C
:102A0000502080F31188BFF34F8FBFF36F8FFEE725
:102A1000704700009400002004ED00E00849486879
:102A200028B1401E486001D180F3118870475020C2
:102A300080F31188BFF34F8FBFF36F8FFEE7000065
:102A40009400002070B5002827D0144DA0F1080490
:102A50006168E868014207D1502080F31188BFF314
:102A60004F8FBFF36F8FFEE722683AB1502080F39B
:102A70001188BFF34F8FBFF36F8FFEE78143616013
:102A800000F0CEF860686968084468602046FFF787
:102A90006DFEBDE8704000F0EFB970BD7C00002015
:102AA00006484FF47A710068B0FBF1F14FF0E02076
:102AB000491E416107210161704700003C00002070
:102AC00010B5020014D00F48006B38B1502080F3CD
:102AD0001188BFF34F8FBFF36F8FFEE700F0A0F8B0
:102AE00000211046FFF7EEFC00F0C6F9002807D1E0
:102AF00005494FF080500860BFF34F8FBFF36F8FD1
:102B000010BD00004000002004ED00E070B5054657
:102B1000FFF764FF254C05B92568281DFFF719FF4D
:102B200058B9E86A224A00EB800152F8211021B915
:102B300001218140206988432061A86A18B105F10C
:102B40001800FFF706FF606A401C6062206885423B
:102B500008D11748291DC830FFF733FF6068401CB3
:102B6000606007E0A068401EA0602846FFF772FD85
:102B7000FFF722FEFFF752FF6069002814D020689B
:102B8000854211D1206B38B1502080F31188BFF3FA
:102B90004F8FBFF36F8FFEE706494FF080500860FC
:102BA000BFF34F8FBFF36F8F70BD00004000002058
:102BB0005804002004ED00E01CB515480024CDE9C0
:102BC00000402346802213A1144800F0C5F80128D4
:102BD00009D0401C1AD1502080F31188BFF34F8FC9
:102BE000BFF36F8FFEE7502080F31188BFF34F8F44
:102BF000BFF36F8F06484FF0FF312C3881620121FF
:102C00004161C460BDE81C4000F06CB81CBD000010
:102C10006C00002049444C4500000000B526000827
:102C20000248016B491C016370470000400000200E
:102C30001448016B11B10121C16170470021C161CC
:102C40000169B1FA81F1C1F11F0101EB81020E4965
:102C500051F822306BB101EB820101F108034A689F
:102C600052684A609A4201D152684A60D168016054
:102C70007047502080F31188BFF34F8FBFF36F8FE1
:102C8000FEE7000040000020580400202DE9F04736
:102C900014460D4680465179D679D2F80090607975
:102CA00023684A191844B24202D82A46414609E02C
:102CB000711ACFB23A464146FDF780FAEA1B08EB9B
:102CC00007014846FDF77AFA60792844B0FBF6F12F
:102CD00006FB11006071A0792844A0712846BDE868
:102CE000F08700001CB5194908780190FF20087092
:102CF00008788DF800009DF80000154A00F050009B
:102D000010700720906005E09DF800305B008DF8A2
:102D10000030401E9DF800301B06F5D4000200F480
:102D2000E0609060019808700A48016841F4700101
:102D30000160016841F070410160FFF7B1FE0020C1
:102D40005060FDF7EFF900201CBD000000E400E03A
:102D50009400002020ED00E02DE9FF5F8346DDE9CF
:102D60000E87994616468A469000FFF749FD0500F2
:102D70001AD05420FFF744FD040012D0256300212F
:102D8000CDE90241CDE900874B46324651465846CF
:102D9000FFF7A4FC2046FFF7CDFB012004B0BDE8FF
:102DA000F09F2846FFF74EFE4FF0FF30F6E7000099
:102DB0002DE9F0412E4C0027206B40B1A069401C4A
:102DC000A061E06900B101273846BDE8F081E668FE
:102DD000761CE66013D1606B006838B1502080F338
:102DE0001188BFF34F8FBFF36F8FFEE7606BA16B4E
:102DF0006163A063206A401C2062FFF7DDFCA06ACB
:102E0000DFF87080864209D3606B006880B1606B28
:102E1000C068C568686886420DD2A0622068C06A32
:102E200000EB800158F821000128CAD90127C8E722
:102E30004FF0FF30F1E7281DFFF78BFDA86A18B1AE
:102E400005F11800FFF785FDE86A0121226981403C
:102E50001143216100EB800108EB8100291DFFF780
:102E6000B0FDE86A2168C96A8842CDD30127CBE763
:102E700040000020580400202DE9F0472C4D00248C
:102E80002746286B38B1FFF7A9FD286B401E286341
:102E9000286B40B146E0502080F31188BFF34F8F7C
:102EA000BFF36F8FFEE7A968224E0120D1B3A6F1D0
:102EB000B40980463068E8B1F068C46804F11800CD
:102EC000FFF747FD201DFFF744FDE06A2A6908FA75
:102ED00000F11143296100EB800109EB8100211D04
:102EE000FFF76FFDE06A2968C96A8842E2D3C5F836
:102EF0001C80DFE70CB1FFF75FFCAC6944B14646CC
:102F0000FFF756FF00B1EE61641EF9D10020A86101
:102F1000E86938B10849012738070860BFF34F8FC7
:102F2000BFF36F8FFFF77AFD3846BDE8F0870000EA
:102F3000400000200C05002004ED00E09C2F00085C
:102F4000951D000800000000000000008000000047
:102F5000902F00089D1D0008FDFF000000000000EC
:102F600080000000A82F0008952300080200000040
:102F700000000000800000000000000000000000D1
:102F8000010203040607080900000000010203040F
:102F90006D795461736B30320000000064656661C6
:102FA000756C745461736B00646775735F706F6CDC
:102FB0006C000000D42F000800000020A0000000DA
:102FC0006222000874300008A0000020A81400004D
:102FD0007222000800000000000000000000000055
:102FE00000000000000000000000000000000000E1
:102FF00000000000000000000000000000000000D1
:1030000000000000010000001000000000000000AF
:1030100000A24A04000000000000000000000000C0
:1030200000000000000000000000000000000000A0
:103030000000000000000000000000000000000090
:103040000000000000000000000000000000000080
:103050000000000000000000000000000000000070
:10306000000000000000000000000000AAAAAAAAB8
:04307000000000005C
:04000005080000ED02
:00000001FF
